{
  "_format": "hh-sol-artifact-1",
  "contractName": "CarRental",
  "sourceName": "contracts/CarRental.sol",
  "abi": [
    {
      "anonymous": false,
      "inputs": [
        {
          "indexed": true,
          "internalType": "uint256",
          "name": "carId",
          "type": "uint256"
        },
        {
          "indexed": true,
          "internalType": "address",
          "name": "owner",
          "type": "address"
        }
      ],
      "name": "CarRegistered",
      "type": "event"
    },
    {
      "anonymous": false,
      "inputs": [
        {
          "indexed": true,
          "internalType": "uint256",
          "name": "carId",
          "type": "uint256"
        },
        {
          "indexed": true,
          "internalType": "address",
          "name": "renter",
          "type": "address"
        },
        {
          "indexed": false,
          "internalType": "uint256",
          "name": "startDate",
          "type": "uint256"
        },
        {
          "indexed": false,
          "internalType": "uint256",
          "name": "endDate",
          "type": "uint256"
        },
        {
          "indexed": false,
          "internalType": "uint256",
          "name": "paid",
          "type": "uint256"
        }
      ],
      "name": "CarRented",
      "type": "event"
    },
    {
      "anonymous": false,
      "inputs": [
        {
          "indexed": true,
          "internalType": "uint256",
          "name": "carId",
          "type": "uint256"
        }
      ],
      "name": "CarUnavailable",
      "type": "event"
    },
    {
      "anonymous": false,
      "inputs": [
        {
          "indexed": true,
          "internalType": "uint256",
          "name": "carId",
          "type": "uint256"
        }
      ],
      "name": "CarUpdated",
      "type": "event"
    },
    {
      "anonymous": false,
      "inputs": [
        {
          "indexed": true,
          "internalType": "uint256",
          "name": "carId",
          "type": "uint256"
        },
        {
          "indexed": true,
          "internalType": "address",
          "name": "renter",
          "type": "address"
        },
        {
          "indexed": false,
          "internalType": "uint256",
          "name": "refunded",
          "type": "uint256"
        }
      ],
      "name": "RentalCancelled",
      "type": "event"
    },
    {
      "anonymous": false,
      "inputs": [
        {
          "indexed": true,
          "internalType": "uint256",
          "name": "carId",
          "type": "uint256"
        }
      ],
      "name": "RentalEnded",
      "type": "event"
    },
    {
      "inputs": [
        {
          "internalType": "uint256",
          "name": "",
          "type": "uint256"
        }
      ],
      "name": "activeRental",
      "outputs": [
        {
          "internalType": "uint256",
          "name": "carId",
          "type": "uint256"
        },
        {
          "internalType": "address",
          "name": "renter",
          "type": "address"
        },
        {
          "internalType": "uint256",
          "name": "startDate",
          "type": "uint256"
        },
        {
          "internalType": "uint256",
          "name": "endDate",
          "type": "uint256"
        },
        {
          "internalType": "uint256",
          "name": "paid",
          "type": "uint256"
        },
        {
          "internalType": "bool",
          "name": "active",
          "type": "bool"
        }
      ],
      "stateMutability": "view",
      "type": "function"
    },
    {
      "inputs": [
        {
          "internalType": "uint256",
          "name": "_carId",
          "type": "uint256"
        }
      ],
      "name": "cancelRental",
      "outputs": [],
      "stateMutability": "nonpayable",
      "type": "function"
    },
    {
      "inputs": [],
      "name": "carCount",
      "outputs": [
        {
          "internalType": "uint256",
          "name": "",
          "type": "uint256"
        }
      ],
      "stateMutability": "view",
      "type": "function"
    },
    {
      "inputs": [
        {
          "internalType": "uint256",
          "name": "",
          "type": "uint256"
        }
      ],
      "name": "cars",
      "outputs": [
        {
          "internalType": "uint256",
          "name": "id",
          "type": "uint256"
        },
        {
          "internalType": "address",
          "name": "owner",
          "type": "address"
        },
        {
          "internalType": "string",
          "name": "model",
          "type": "string"
        },
        {
          "internalType": "string",
          "name": "pickupLocation",
          "type": "string"
        },
        {
          "internalType": "uint256",
          "name": "pricePerDay",
          "type": "uint256"
        },
        {
          "internalType": "enum CarRental.CarStatus",
          "name": "status",
          "type": "uint8"
        },
        {
          "internalType": "uint256",
          "name": "earnings",
          "type": "uint256"
        }
      ],
      "stateMutability": "view",
      "type": "function"
    },
    {
      "inputs": [
        {
          "internalType": "uint256",
          "name": "_carId",
          "type": "uint256"
        }
      ],
      "name": "endRental",
      "outputs": [],
      "stateMutability": "nonpayable",
      "type": "function"
    },
    {
      "inputs": [
        {
          "internalType": "address",
          "name": "user",
          "type": "address"
        }
      ],
      "name": "getOwnerHistory",
      "outputs": [
        {
          "components": [
            {
              "internalType": "uint256",
              "name": "carId",
              "type": "uint256"
            },
            {
              "internalType": "address",
              "name": "renter",
              "type": "address"
            },
            {
              "internalType": "uint256",
              "name": "startDate",
              "type": "uint256"
            },
            {
              "internalType": "uint256",
              "name": "endDate",
              "type": "uint256"
            },
            {
              "internalType": "uint256",
              "name": "paid",
              "type": "uint256"
            },
            {
              "internalType": "bool",
              "name": "active",
              "type": "bool"
            }
          ],
          "internalType": "struct CarRental.Rental[]",
          "name": "",
          "type": "tuple[]"
        }
      ],
      "stateMutability": "view",
      "type": "function"
    },
    {
      "inputs": [
        {
          "internalType": "address",
          "name": "user",
          "type": "address"
        }
      ],
      "name": "getRenterHistory",
      "outputs": [
        {
          "components": [
            {
              "internalType": "uint256",
              "name": "carId",
              "type": "uint256"
            },
            {
              "internalType": "address",
              "name": "renter",
              "type": "address"
            },
            {
              "internalType": "uint256",
              "name": "startDate",
              "type": "uint256"
            },
            {
              "internalType": "uint256",
              "name": "endDate",
              "type": "uint256"
            },
            {
              "internalType": "uint256",
              "name": "paid",
              "type": "uint256"
            },
            {
              "internalType": "bool",
              "name": "active",
              "type": "bool"
            }
          ],
          "internalType": "struct CarRental.Rental[]",
          "name": "",
          "type": "tuple[]"
        }
      ],
      "stateMutability": "view",
      "type": "function"
    },
    {
      "inputs": [
        {
          "internalType": "string",
          "name": "_model",
          "type": "string"
        },
        {
          "internalType": "string",
          "name": "_pickupLocation",
          "type": "string"
        },
        {
          "internalType": "uint256",
          "name": "_pricePerDay",
          "type": "uint256"
        }
      ],
      "name": "registerCar",
      "outputs": [],
      "stateMutability": "nonpayable",
      "type": "function"
    },
    {
      "inputs": [
        {
          "internalType": "uint256",
          "name": "_carId",
          "type": "uint256"
        },
        {
          "internalType": "uint256",
          "name": "_startDate",
          "type": "uint256"
        },
        {
          "internalType": "uint256",
          "name": "_endDate",
          "type": "uint256"
        }
      ],
      "name": "rentCar",
      "outputs": [],
      "stateMutability": "payable",
      "type": "function"
    },
    {
      "inputs": [
        {
          "internalType": "uint256",
          "name": "_carId",
          "type": "uint256"
        }
      ],
      "name": "setCarUnavailable",
      "outputs": [],
      "stateMutability": "nonpayable",
      "type": "function"
    },
    {
      "inputs": [
        {
          "internalType": "uint256",
          "name": "_carId",
          "type": "uint256"
        },
        {
          "internalType": "string",
          "name": "_pickupLocation",
          "type": "string"
        },
        {
          "internalType": "uint256",
          "name": "_pricePerDay",
          "type": "uint256"
        }
      ],
      "name": "updateCarDetails",
      "outputs": [],
      "stateMutability": "nonpayable",
      "type": "function"
    }
  ],
  "bytecode": "0x608060405234801561001057600080fd5b506116ee806100206000396000f3fe60806040526004361061009c5760003560e01c8063634058321161006457806363405832146101b4578063968abad9146101d457806397491d6f146101f457806397ce99df14610214578063b76963f114610241578063f7746e361461026157600080fd5b8063297a1f56146100a15780632f792339146100ca5780634192440d146100ec57806346b516ea146100ff5780635e0dacb414610194575b600080fd5b3480156100ad57600080fd5b506100b760005481565b6040519081526020015b60405180910390f35b3480156100d657600080fd5b506100ea6100e536600461123f565b610294565b005b6100ea6100fa3660046112ac565b61040f565b34801561010b57600080fd5b5061015d61011a3660046112d8565b600260208190526000918252604090912080546001820154928201546003830154600484015460059094015492946001600160a01b031693919290919060ff1686565b604080519687526001600160a01b0390951660208701529385019290925260608401526080830152151560a082015260c0016100c1565b3480156101a057600080fd5b506100ea6101af3660046112d8565b6109bf565b3480156101c057600080fd5b506100ea6101cf3660046112f1565b610bb0565b3480156101e057600080fd5b506100ea6101ef3660046112d8565b610cce565b34801561020057600080fd5b506100ea61020f3660046112d8565b610da9565b34801561022057600080fd5b5061023461022f366004611330565b610edc565b6040516100c19190611360565b34801561024d57600080fd5b5061023461025c366004611330565b610f95565b34801561026d57600080fd5b5061028161027c3660046112d8565b611040565b6040516100c1979695949392919061143f565b600081116102d95760405162461bcd60e51b815260206004820152600d60248201526c496e76616c696420707269636560981b60448201526064015b60405180910390fd5b6000805490806102e8836114cd565b91905055506040518060e001604052806000548152602001336001600160a01b031681526020018481526020018381526020018281526020016000600281111561033457610334611429565b815260006020918201819052805481526001808352604091829020845181559284015190830180546001600160a01b0319166001600160a01b039092169190911790558201516002820190610389908261156f565b506060820151600382019061039e908261156f565b506080820151600482015560a082015160058201805460ff191660018360028111156103cc576103cc611429565b021790555060c091909101516006909101556000805460405133927f459e1abea8d58f1f390ad63904970bc184e7e026ff12f2f7f3c3aed6677ad18791a3505050565b600083815260016020526040812090600582015460ff16600281111561043757610437611429565b146104785760405162461bcd60e51b8152602060048201526011602482015270436172206e6f7420617661696c61626c6560781b60448201526064016102d0565b8282116104c75760405162461bcd60e51b815260206004820152601c60248201527f456e642064617465206d7573742062652061667465722073746172740000000060448201526064016102d0565b6000620151806104d7858561162f565b6104e19190611648565b90506000811161052a5760405162461bcd60e51b8152602060048201526014602482015273135a5b9a5b5d5b480c4819185e481c995b9d185b60621b60448201526064016102d0565b600082600401548261053c919061166a565b9050803410156105845760405162461bcd60e51b8152602060048201526013602482015272139bdd08195b9bdd59da08115512081cd95b9d606a1b60448201526064016102d0565b60058301805460ff191660011790556006830180548291906000906105aa908490611681565b9250508190555060006040518060c00160405280888152602001336001600160a01b0316815260200187815260200186815260200183815260200160011515815250905080600260008981526020019081526020016000206000820151816000015560208201518160010160006101000a8154816001600160a01b0302191690836001600160a01b0316021790555060408201518160020155606082015181600301556080820151816004015560a08201518160050160006101000a81548160ff02191690831515021790555090505060036000336001600160a01b03166001600160a01b031681526020019081526020016000208190806001815401808255809150506001900390600052602060002090600602016000909190919091506000820151816000015560208201518160010160006101000a8154816001600160a01b0302191690836001600160a01b0316021790555060408201518160020155606082015181600301556080820151816004015560a08201518160050160006101000a81548160ff0219169083151502179055505050600460008560010160009054906101000a90046001600160a01b03166001600160a01b03166001600160a01b031681526020019081526020016000208190806001815401808255809150506001900390600052602060002090600602016000909190919091506000820151816000015560208201518160010160006101000a8154816001600160a01b0302191690836001600160a01b0316021790555060408201518160020155606082015181600301556080820151816004015560a08201518160050160006101000a81548160ff021916908315150217905550505060008460010160009054906101000a90046001600160a01b03166001600160a01b03168360405160006040518083038185875af1925050503d8060008114610881576040519150601f19603f3d011682016040523d82523d6000602084013e610886565b606091505b50509050806108ce5760405162461bcd60e51b815260206004820152601460248201527313dddb995c881c185e5b595b9d0819985a5b195960621b60448201526064016102d0565b823411156109705760006108e2843461162f565b604051909150600090339083908381818185875af1925050503d8060008114610927576040519150601f19603f3d011682016040523d82523d6000602084013e61092c565b606091505b505090508061096d5760405162461bcd60e51b815260206004820152600d60248201526c1499599d5b990819985a5b1959609a1b60448201526064016102d0565b50505b6040805188815260208101889052908101849052339089907fe1e862fec8fa1927775190a10702820a777d0b1d4f2ff534be9783ef31f088599060600160405180910390a35050505050505050565b6000818152600160208190526040909120908101546001600160a01b031633146109fb5760405162461bcd60e51b81526004016102d090611694565b6001600582015460ff166002811115610a1657610a16611429565b14610a545760405162461bcd60e51b815260206004820152600e60248201526d10d85c881b9bdd081c995b9d195960921b60448201526064016102d0565b6000828152600260205260409020600581015460ff16610aa95760405162461bcd60e51b815260206004820152601060248201526f139bc81858dd1a5d99481c995b9d185b60821b60448201526064016102d0565b6005818101805460ff1990811690915590830180549091166002179055600181015460048201546040516000926001600160a01b031691908381818185875af1925050503d8060008114610b19576040519150601f19603f3d011682016040523d82523d6000602084013e610b1e565b606091505b5050905080610b5f5760405162461bcd60e51b815260206004820152600d60248201526c1499599d5b990819985a5b1959609a1b60448201526064016102d0565b600182015460048301546040519081526001600160a01b039091169085907f8e5451389e92e46e3ab85110d65acde7ac22919df8dd6df438d70b3188cace629060200160405180910390a350505050565b6000838152600160208190526040909120908101546001600160a01b03163314610bec5760405162461bcd60e51b81526004016102d090611694565b6000600582015460ff166002811115610c0757610c07611429565b14610c475760405162461bcd60e51b815260206004820152601060248201526f436172206e6f74206564697461626c6560801b60448201526064016102d0565b60008211610c875760405162461bcd60e51b815260206004820152600d60248201526c496e76616c696420707269636560981b60448201526064016102d0565b60038101610c95848261156f565b506004810182905560405184907f935eeddcdb911de1c078d5ba3c0138d64d317e34145e127419eaa373421d051a90600090a250505050565b6000818152600160208190526040909120908101546001600160a01b03163314610d0a5760405162461bcd60e51b81526004016102d090611694565b6000600582015460ff166002811115610d2557610d25611429565b14610d6b5760405162461bcd60e51b815260206004820152601660248201527510d85c8818d85b9b9bdd08189948191a5cd8589b195960521b60448201526064016102d0565b60058101805460ff1916600217905560405182907f8172b0d60cd9c559c5e144ada5c0a01393a852f631c3f66696b0649e5080060390600090a25050565b6000818152600160208190526040909120908101546001600160a01b03163314610de55760405162461bcd60e51b81526004016102d090611694565b6001600582015460ff166002811115610e0057610e00611429565b14610e3a5760405162461bcd60e51b815260206004820152600a602482015269139bdd081c995b9d195960b21b60448201526064016102d0565b60008281526002602052604090206003810154421015610e925760405162461bcd60e51b815260206004820152601360248201527252656e74616c207374696c6c2061637469766560681b60448201526064016102d0565b6005818101805460ff199081169091559083018054909116905560405183907fdf0018bb98956332f02ca39511007ac6497224c99f12b6cb8518a69aa6be5e5b90600090a2505050565b6001600160a01b0381166000908152600360209081526040808320805482518185028101850190935280835260609492939192909184015b82821015610f8a5760008481526020908190206040805160c08101825260068602909201805483526001808201546001600160a01b03168486015260028201549284019290925260038101546060840152600481015460808401526005015460ff16151560a08301529083529092019101610f14565b505050509050919050565b6001600160a01b0381166000908152600460209081526040808320805482518185028101850190935280835260609492939192909184018215610f8a5760008481526020908190206040805160c08101825260068602909201805483526001808201546001600160a01b03168486015260028201549284019290925260038101546060840152600481015460808401526005015460ff16151560a08301529083529092019101610f14565b60016020819052600091825260409091208054918101546002820180546001600160a01b039092169291611073906114e6565b80601f016020809104026020016040519081016040528092919081815260200182805461109f906114e6565b80156110ec5780601f106110c1576101008083540402835291602001916110ec565b820191906000526020600020905b8154815290600101906020018083116110cf57829003601f168201915b505050505090806003018054611101906114e6565b80601f016020809104026020016040519081016040528092919081815260200182805461112d906114e6565b801561117a5780601f1061114f5761010080835404028352916020019161117a565b820191906000526020600020905b81548152906001019060200180831161115d57829003601f168201915b50505050600483015460058401546006909401549293909260ff909116915087565b634e487b7160e01b600052604160045260246000fd5b600082601f8301126111c357600080fd5b813567ffffffffffffffff808211156111de576111de61119c565b604051601f8301601f19908116603f011681019082821181831017156112065761120661119c565b8160405283815286602085880101111561121f57600080fd5b836020870160208301376000602085830101528094505050505092915050565b60008060006060848603121561125457600080fd5b833567ffffffffffffffff8082111561126c57600080fd5b611278878388016111b2565b9450602086013591508082111561128e57600080fd5b5061129b868287016111b2565b925050604084013590509250925092565b6000806000606084860312156112c157600080fd5b505081359360208301359350604090920135919050565b6000602082840312156112ea57600080fd5b5035919050565b60008060006060848603121561130657600080fd5b83359250602084013567ffffffffffffffff81111561132457600080fd5b61129b868287016111b2565b60006020828403121561134257600080fd5b81356001600160a01b038116811461135957600080fd5b9392505050565b602080825282518282018190526000919060409081850190868401855b828110156113d657815180518552868101516001600160a01b0316878601528581015186860152606080820151908601526080808201519086015260a09081015115159085015260c0909301929085019060010161137d565b5091979650505050505050565b6000815180845260005b81811015611409576020818501810151868301820152016113ed565b506000602082860101526020601f19601f83011685010191505092915050565b634e487b7160e01b600052602160045260246000fd5b8781526001600160a01b038716602082015260e060408201819052600090611469908301886113e3565b828103606084015261147b81886113e3565b915050846080830152600384106114a257634e487b7160e01b600052602160045260246000fd5b60a082019390935260c0015295945050505050565b634e487b7160e01b600052601160045260246000fd5b6000600182016114df576114df6114b7565b5060010190565b600181811c908216806114fa57607f821691505b60208210810361151a57634e487b7160e01b600052602260045260246000fd5b50919050565b601f82111561156a57600081815260208120601f850160051c810160208610156115475750805b601f850160051c820191505b8181101561156657828155600101611553565b5050505b505050565b815167ffffffffffffffff8111156115895761158961119c565b61159d8161159784546114e6565b84611520565b602080601f8311600181146115d257600084156115ba5750858301515b600019600386901b1c1916600185901b178555611566565b600085815260208120601f198616915b82811015611601578886015182559484019460019091019084016115e2565b508582101561161f5787850151600019600388901b60f8161c191681555b5050505050600190811b01905550565b81810381811115611642576116426114b7565b92915050565b60008261166557634e487b7160e01b600052601260045260246000fd5b500490565b8082028115828204841417611642576116426114b7565b80820180821115611642576116426114b7565b6020808252600a908201526927b7363c9037bbb732b960b11b60408201526060019056fea26469706673582212208a53be87b94060f8b66256c8a70fc8de79f28b0bd33873eaee5421b2d7108c6264736f6c63430008140033",
  "linkReferences": {},
  "deployedLinkReferences": {}
}