{
  "_format": "hh-sol-artifact-1",
  "contractName": "CarRental",
  "sourceName": "contracts/CarRental.sol",
  "abi": [
    {
      "anonymous": false,
      "inputs": [
        {
          "indexed": true,
          "internalType": "uint256",
          "name": "carId",
          "type": "uint256"
        },
        {
          "indexed": true,
          "internalType": "address",
          "name": "owner",
          "type": "address"
        }
      ],
      "name": "CarRegistered",
      "type": "event"
    },
    {
      "anonymous": false,
      "inputs": [
        {
          "indexed": true,
          "internalType": "uint256",
          "name": "carId",
          "type": "uint256"
        },
        {
          "indexed": true,
          "internalType": "address",
          "name": "renter",
          "type": "address"
        },
        {
          "indexed": false,
          "internalType": "uint256",
          "name": "startDate",
          "type": "uint256"
        },
        {
          "indexed": false,
          "internalType": "uint256",
          "name": "endDate",
          "type": "uint256"
        },
        {
          "indexed": false,
          "internalType": "uint256",
          "name": "paid",
          "type": "uint256"
        }
      ],
      "name": "CarRented",
      "type": "event"
    },
    {
      "anonymous": false,
      "inputs": [
        {
          "indexed": true,
          "internalType": "uint256",
          "name": "carId",
          "type": "uint256"
        }
      ],
      "name": "CarUnavailable",
      "type": "event"
    },
    {
      "anonymous": false,
      "inputs": [
        {
          "indexed": true,
          "internalType": "uint256",
          "name": "carId",
          "type": "uint256"
        }
      ],
      "name": "CarUpdated",
      "type": "event"
    },
    {
      "anonymous": false,
      "inputs": [
        {
          "indexed": true,
          "internalType": "uint256",
          "name": "carId",
          "type": "uint256"
        },
        {
          "indexed": true,
          "internalType": "address",
          "name": "renter",
          "type": "address"
        },
        {
          "indexed": false,
          "internalType": "uint256",
          "name": "refunded",
          "type": "uint256"
        }
      ],
      "name": "RentalCancelled",
      "type": "event"
    },
    {
      "anonymous": false,
      "inputs": [
        {
          "indexed": true,
          "internalType": "uint256",
          "name": "carId",
          "type": "uint256"
        }
      ],
      "name": "RentalEnded",
      "type": "event"
    },
    {
      "inputs": [
        {
          "internalType": "uint256",
          "name": "",
          "type": "uint256"
        }
      ],
      "name": "activeRental",
      "outputs": [
        {
          "internalType": "uint256",
          "name": "carId",
          "type": "uint256"
        },
        {
          "internalType": "address",
          "name": "renter",
          "type": "address"
        },
        {
          "internalType": "uint256",
          "name": "startDate",
          "type": "uint256"
        },
        {
          "internalType": "uint256",
          "name": "endDate",
          "type": "uint256"
        },
        {
          "internalType": "uint256",
          "name": "paid",
          "type": "uint256"
        },
        {
          "internalType": "bool",
          "name": "active",
          "type": "bool"
        }
      ],
      "stateMutability": "view",
      "type": "function"
    },
    {
      "inputs": [
        {
          "internalType": "uint256",
          "name": "_carId",
          "type": "uint256"
        }
      ],
      "name": "cancelRental",
      "outputs": [],
      "stateMutability": "nonpayable",
      "type": "function"
    },
    {
      "inputs": [],
      "name": "carCount",
      "outputs": [
        {
          "internalType": "uint256",
          "name": "",
          "type": "uint256"
        }
      ],
      "stateMutability": "view",
      "type": "function"
    },
    {
      "inputs": [
        {
          "internalType": "uint256",
          "name": "",
          "type": "uint256"
        }
      ],
      "name": "cars",
      "outputs": [
        {
          "internalType": "uint256",
          "name": "id",
          "type": "uint256"
        },
        {
          "internalType": "address",
          "name": "owner",
          "type": "address"
        },
        {
          "internalType": "string",
          "name": "model",
          "type": "string"
        },
        {
          "internalType": "string",
          "name": "pickupLocation",
          "type": "string"
        },
        {
          "internalType": "uint256",
          "name": "pricePerDay",
          "type": "uint256"
        },
        {
          "internalType": "enum CarRental.CarStatus",
          "name": "status",
          "type": "uint8"
        },
        {
          "internalType": "uint256",
          "name": "earnings",
          "type": "uint256"
        }
      ],
      "stateMutability": "view",
      "type": "function"
    },
    {
      "inputs": [
        {
          "internalType": "uint256",
          "name": "_carId",
          "type": "uint256"
        }
      ],
      "name": "endRental",
      "outputs": [],
      "stateMutability": "nonpayable",
      "type": "function"
    },
    {
      "inputs": [
        {
          "internalType": "address",
          "name": "user",
          "type": "address"
        }
      ],
      "name": "getOwnerHistory",
      "outputs": [
        {
          "components": [
            {
              "internalType": "uint256",
              "name": "carId",
              "type": "uint256"
            },
            {
              "internalType": "address",
              "name": "renter",
              "type": "address"
            },
            {
              "internalType": "uint256",
              "name": "startDate",
              "type": "uint256"
            },
            {
              "internalType": "uint256",
              "name": "endDate",
              "type": "uint256"
            },
            {
              "internalType": "uint256",
              "name": "paid",
              "type": "uint256"
            },
            {
              "internalType": "bool",
              "name": "active",
              "type": "bool"
            }
          ],
          "internalType": "struct CarRental.Rental[]",
          "name": "",
          "type": "tuple[]"
        }
      ],
      "stateMutability": "view",
      "type": "function"
    },
    {
      "inputs": [
        {
          "internalType": "address",
          "name": "user",
          "type": "address"
        }
      ],
      "name": "getRenterHistory",
      "outputs": [
        {
          "components": [
            {
              "internalType": "uint256",
              "name": "carId",
              "type": "uint256"
            },
            {
              "internalType": "address",
              "name": "renter",
              "type": "address"
            },
            {
              "internalType": "uint256",
              "name": "startDate",
              "type": "uint256"
            },
            {
              "internalType": "uint256",
              "name": "endDate",
              "type": "uint256"
            },
            {
              "internalType": "uint256",
              "name": "paid",
              "type": "uint256"
            },
            {
              "internalType": "bool",
              "name": "active",
              "type": "bool"
            }
          ],
          "internalType": "struct CarRental.Rental[]",
          "name": "",
          "type": "tuple[]"
        }
      ],
      "stateMutability": "view",
      "type": "function"
    },
    {
      "inputs": [
        {
          "internalType": "string",
          "name": "_model",
          "type": "string"
        },
        {
          "internalType": "string",
          "name": "_pickupLocation",
          "type": "string"
        },
        {
          "internalType": "uint256",
          "name": "_pricePerDay",
          "type": "uint256"
        }
      ],
      "name": "registerCar",
      "outputs": [],
      "stateMutability": "nonpayable",
      "type": "function"
    },
    {
      "inputs": [
        {
          "internalType": "uint256",
          "name": "_carId",
          "type": "uint256"
        },
        {
          "internalType": "uint256",
          "name": "_startDate",
          "type": "uint256"
        },
        {
          "internalType": "uint256",
          "name": "_endDate",
          "type": "uint256"
        }
      ],
      "name": "rentCar",
      "outputs": [],
      "stateMutability": "payable",
      "type": "function"
    },
    {
      "inputs": [
        {
          "internalType": "uint256",
          "name": "_carId",
          "type": "uint256"
        }
      ],
      "name": "setCarAvailable",
      "outputs": [],
      "stateMutability": "nonpayable",
      "type": "function"
    },
    {
      "inputs": [
        {
          "internalType": "uint256",
          "name": "_carId",
          "type": "uint256"
        }
      ],
      "name": "setCarUnavailable",
      "outputs": [],
      "stateMutability": "nonpayable",
      "type": "function"
    },
    {
      "inputs": [
        {
          "internalType": "uint256",
          "name": "_carId",
          "type": "uint256"
        },
        {
          "internalType": "string",
          "name": "_pickupLocation",
          "type": "string"
        },
        {
          "internalType": "uint256",
          "name": "_pricePerDay",
          "type": "uint256"
        }
      ],
      "name": "updateCarDetails",
      "outputs": [],
      "stateMutability": "nonpayable",
      "type": "function"
    }
  ],
  "bytecode": "0x608060405234801561001057600080fd5b50611803806100206000396000f3fe6080604052600436106100a75760003560e01c8063634058321161006457806363405832146101df578063968abad9146101ff57806397491d6f1461021f57806397ce99df1461023f578063b76963f11461026c578063f7746e361461028c57600080fd5b806301a572bf146100ac578063297a1f56146100ce5780632f792339146100f75780634192440d1461011757806346b516ea1461012a5780635e0dacb4146101bf575b600080fd5b3480156100b857600080fd5b506100cc6100c73660046112b1565b6102bf565b005b3480156100da57600080fd5b506100e460005481565b6040519081526020015b60405180910390f35b34801561010357600080fd5b506100cc61011236600461136d565b6103a7565b6100cc6101253660046113da565b61051d565b34801561013657600080fd5b506101886101453660046112b1565b600260208190526000918252604090912080546001820154928201546003830154600484015460059094015492946001600160a01b031693919290919060ff1686565b604080519687526001600160a01b0390951660208701529385019290925260608401526080830152151560a082015260c0016100ee565b3480156101cb57600080fd5b506100cc6101da3660046112b1565b610acd565b3480156101eb57600080fd5b506100cc6101fa366004611406565b610cbe565b34801561020b57600080fd5b506100cc61021a3660046112b1565b610ddc565b34801561022b57600080fd5b506100cc61023a3660046112b1565b610ebe565b34801561024b57600080fd5b5061025f61025a366004611445565b610ff1565b6040516100ee9190611475565b34801561027857600080fd5b5061025f610287366004611445565b6110aa565b34801561029857600080fd5b506102ac6102a73660046112b1565b611155565b6040516100ee9796959493929190611554565b6000818152600160208190526040909120908101546001600160a01b031633146103045760405162461bcd60e51b81526004016102fb906115cc565b60405180910390fd5b6002600582015460ff16600281111561031f5761031f61153e565b1461036c5760405162461bcd60e51b815260206004820152601b60248201527f436172206973206e6f742063757272656e746c792068696464656e000000000060448201526064016102fb565b60058101805460ff1916905560405182907f935eeddcdb911de1c078d5ba3c0138d64d317e34145e127419eaa373421d051a90600090a25050565b600081116103e75760405162461bcd60e51b815260206004820152600d60248201526c496e76616c696420707269636560981b60448201526064016102fb565b6000805490806103f683611606565b91905055506040518060e001604052806000548152602001336001600160a01b03168152602001848152602001838152602001828152602001600060028111156104425761044261153e565b815260006020918201819052805481526001808352604091829020845181559284015190830180546001600160a01b0319166001600160a01b03909216919091179055820151600282019061049790826116a8565b50606082015160038201906104ac90826116a8565b506080820151600482015560a082015160058201805460ff191660018360028111156104da576104da61153e565b021790555060c091909101516006909101556000805460405133927f459e1abea8d58f1f390ad63904970bc184e7e026ff12f2f7f3c3aed6677ad18791a3505050565b600083815260016020526040812090600582015460ff1660028111156105455761054561153e565b146105865760405162461bcd60e51b8152602060048201526011602482015270436172206e6f7420617661696c61626c6560781b60448201526064016102fb565b8282116105d55760405162461bcd60e51b815260206004820152601c60248201527f456e642064617465206d7573742062652061667465722073746172740000000060448201526064016102fb565b6000620151806105e58585611768565b6105ef9190611781565b9050600081116106385760405162461bcd60e51b8152602060048201526014602482015273135a5b9a5b5d5b480c4819185e481c995b9d185b60621b60448201526064016102fb565b600082600401548261064a91906117a3565b9050803410156106925760405162461bcd60e51b8152602060048201526013602482015272139bdd08195b9bdd59da08115512081cd95b9d606a1b60448201526064016102fb565b60058301805460ff191660011790556006830180548291906000906106b89084906117ba565b9250508190555060006040518060c00160405280888152602001336001600160a01b0316815260200187815260200186815260200183815260200160011515815250905080600260008981526020019081526020016000206000820151816000015560208201518160010160006101000a8154816001600160a01b0302191690836001600160a01b0316021790555060408201518160020155606082015181600301556080820151816004015560a08201518160050160006101000a81548160ff02191690831515021790555090505060036000336001600160a01b03166001600160a01b031681526020019081526020016000208190806001815401808255809150506001900390600052602060002090600602016000909190919091506000820151816000015560208201518160010160006101000a8154816001600160a01b0302191690836001600160a01b0316021790555060408201518160020155606082015181600301556080820151816004015560a08201518160050160006101000a81548160ff0219169083151502179055505050600460008560010160009054906101000a90046001600160a01b03166001600160a01b03166001600160a01b031681526020019081526020016000208190806001815401808255809150506001900390600052602060002090600602016000909190919091506000820151816000015560208201518160010160006101000a8154816001600160a01b0302191690836001600160a01b0316021790555060408201518160020155606082015181600301556080820151816004015560a08201518160050160006101000a81548160ff021916908315150217905550505060008460010160009054906101000a90046001600160a01b03166001600160a01b03168360405160006040518083038185875af1925050503d806000811461098f576040519150601f19603f3d011682016040523d82523d6000602084013e610994565b606091505b50509050806109dc5760405162461bcd60e51b815260206004820152601460248201527313dddb995c881c185e5b595b9d0819985a5b195960621b60448201526064016102fb565b82341115610a7e5760006109f08434611768565b604051909150600090339083908381818185875af1925050503d8060008114610a35576040519150601f19603f3d011682016040523d82523d6000602084013e610a3a565b606091505b5050905080610a7b5760405162461bcd60e51b815260206004820152600d60248201526c1499599d5b990819985a5b1959609a1b60448201526064016102fb565b50505b6040805188815260208101889052908101849052339089907fe1e862fec8fa1927775190a10702820a777d0b1d4f2ff534be9783ef31f088599060600160405180910390a35050505050505050565b6000818152600160208190526040909120908101546001600160a01b03163314610b095760405162461bcd60e51b81526004016102fb906115cc565b6001600582015460ff166002811115610b2457610b2461153e565b14610b625760405162461bcd60e51b815260206004820152600e60248201526d10d85c881b9bdd081c995b9d195960921b60448201526064016102fb565b6000828152600260205260409020600581015460ff16610bb75760405162461bcd60e51b815260206004820152601060248201526f139bc81858dd1a5d99481c995b9d185b60821b60448201526064016102fb565b6005818101805460ff1990811690915590830180549091166002179055600181015460048201546040516000926001600160a01b031691908381818185875af1925050503d8060008114610c27576040519150601f19603f3d011682016040523d82523d6000602084013e610c2c565b606091505b5050905080610c6d5760405162461bcd60e51b815260206004820152600d60248201526c1499599d5b990819985a5b1959609a1b60448201526064016102fb565b600182015460048301546040519081526001600160a01b039091169085907f8e5451389e92e46e3ab85110d65acde7ac22919df8dd6df438d70b3188cace629060200160405180910390a350505050565b6000838152600160208190526040909120908101546001600160a01b03163314610cfa5760405162461bcd60e51b81526004016102fb906115cc565b6000600582015460ff166002811115610d1557610d1561153e565b14610d555760405162461bcd60e51b815260206004820152601060248201526f436172206e6f74206564697461626c6560801b60448201526064016102fb565b60008211610d955760405162461bcd60e51b815260206004820152600d60248201526c496e76616c696420707269636560981b60448201526064016102fb565b60038101610da384826116a8565b506004810182905560405184907f935eeddcdb911de1c078d5ba3c0138d64d317e34145e127419eaa373421d051a90600090a250505050565b6000818152600160208190526040909120908101546001600160a01b03163314610e185760405162461bcd60e51b81526004016102fb906115cc565b6000600582015460ff166002811115610e3357610e3361153e565b14610e805760405162461bcd60e51b815260206004820152601d60248201527f436172206d75737420626520417661696c61626c6520746f206869646500000060448201526064016102fb565b60058101805460ff1916600217905560405182907f8172b0d60cd9c559c5e144ada5c0a01393a852f631c3f66696b0649e5080060390600090a25050565b6000818152600160208190526040909120908101546001600160a01b03163314610efa5760405162461bcd60e51b81526004016102fb906115cc565b6001600582015460ff166002811115610f1557610f1561153e565b14610f4f5760405162461bcd60e51b815260206004820152600a602482015269139bdd081c995b9d195960b21b60448201526064016102fb565b60008281526002602052604090206003810154421015610fa75760405162461bcd60e51b815260206004820152601360248201527252656e74616c207374696c6c2061637469766560681b60448201526064016102fb565b6005818101805460ff199081169091559083018054909116905560405183907fdf0018bb98956332f02ca39511007ac6497224c99f12b6cb8518a69aa6be5e5b90600090a2505050565b6001600160a01b0381166000908152600360209081526040808320805482518185028101850190935280835260609492939192909184015b8282101561109f5760008481526020908190206040805160c08101825260068602909201805483526001808201546001600160a01b03168486015260028201549284019290925260038101546060840152600481015460808401526005015460ff16151560a08301529083529092019101611029565b505050509050919050565b6001600160a01b038116600090815260046020908152604080832080548251818502810185019093528083526060949293919290918401821561109f5760008481526020908190206040805160c08101825260068602909201805483526001808201546001600160a01b03168486015260028201549284019290925260038101546060840152600481015460808401526005015460ff16151560a08301529083529092019101611029565b60016020819052600091825260409091208054918101546002820180546001600160a01b0390921692916111889061161f565b80601f01602080910402602001604051908101604052809291908181526020018280546111b49061161f565b80156112015780601f106111d657610100808354040283529160200191611201565b820191906000526020600020905b8154815290600101906020018083116111e457829003601f168201915b5050505050908060030180546112169061161f565b80601f01602080910402602001604051908101604052809291908181526020018280546112429061161f565b801561128f5780601f106112645761010080835404028352916020019161128f565b820191906000526020600020905b81548152906001019060200180831161127257829003601f168201915b50505050600483015460058401546006909401549293909260ff909116915087565b6000602082840312156112c357600080fd5b5035919050565b634e487b7160e01b600052604160045260246000fd5b600082601f8301126112f157600080fd5b813567ffffffffffffffff8082111561130c5761130c6112ca565b604051601f8301601f19908116603f01168101908282118183101715611334576113346112ca565b8160405283815286602085880101111561134d57600080fd5b836020870160208301376000602085830101528094505050505092915050565b60008060006060848603121561138257600080fd5b833567ffffffffffffffff8082111561139a57600080fd5b6113a6878388016112e0565b945060208601359150808211156113bc57600080fd5b506113c9868287016112e0565b925050604084013590509250925092565b6000806000606084860312156113ef57600080fd5b505081359360208301359350604090920135919050565b60008060006060848603121561141b57600080fd5b83359250602084013567ffffffffffffffff81111561143957600080fd5b6113c9868287016112e0565b60006020828403121561145757600080fd5b81356001600160a01b038116811461146e57600080fd5b9392505050565b602080825282518282018190526000919060409081850190868401855b828110156114eb57815180518552868101516001600160a01b0316878601528581015186860152606080820151908601526080808201519086015260a09081015115159085015260c09093019290850190600101611492565b5091979650505050505050565b6000815180845260005b8181101561151e57602081850181015186830182015201611502565b506000602082860101526020601f19601f83011685010191505092915050565b634e487b7160e01b600052602160045260246000fd5b8781526001600160a01b038716602082015260e06040820181905260009061157e908301886114f8565b828103606084015261159081886114f8565b915050846080830152600384106115b757634e487b7160e01b600052602160045260246000fd5b60a082019390935260c0015295945050505050565b6020808252600a908201526927b7363c9037bbb732b960b11b604082015260600190565b634e487b7160e01b600052601160045260246000fd5b600060018201611618576116186115f0565b5060010190565b600181811c9082168061163357607f821691505b60208210810361165357634e487b7160e01b600052602260045260246000fd5b50919050565b601f8211156116a357600081815260208120601f850160051c810160208610156116805750805b601f850160051c820191505b8181101561169f5782815560010161168c565b5050505b505050565b815167ffffffffffffffff8111156116c2576116c26112ca565b6116d6816116d0845461161f565b84611659565b602080601f83116001811461170b57600084156116f35750858301515b600019600386901b1c1916600185901b17855561169f565b600085815260208120601f198616915b8281101561173a5788860151825594840194600190910190840161171b565b50858210156117585787850151600019600388901b60f8161c191681555b5050505050600190811b01905550565b8181038181111561177b5761177b6115f0565b92915050565b60008261179e57634e487b7160e01b600052601260045260246000fd5b500490565b808202811582820484141761177b5761177b6115f0565b8082018082111561177b5761177b6115f056fea264697066735822122094bf1dea41170869d43ed076c137af8ef4ee79d288a35950e4e0151887a3c5bf64736f6c63430008140033",
  "linkReferences": {},
  "deployedLinkReferences": {}
}